S00B00006D61696E2E73313944
S2050000006F8B
S20500000100F9
S20500000240B8
S20500000310E7
S2050000046F87
S20500000500F5
S20500000640B4
S20500000727CC
S2050000086F83
S20500000900F1
S20500000A40B0
S20500000B2AC5
S20500000C6F7F
S20500000D00ED
S20500000E00EC
S20500000F27C4
S2050000106F7B
S20500001100E9
S205000012C028
S20500001329BE
S2050000146F77
S20500001500E5
S2050000168064
S20500001729BA
S2050000186F73
S20500001900E1
S20500001A40A0
S20500001B29B6
S20500001C6F6F
S20500001D00DD
S20500001E00DC
S20500001F29B2
S2050000206F6B
S20500002100D9
S205000022C018
S20500002328AF
S2050000246F67
S20500002500D5
S205000026C014
S20500002725AE
S2050000286F63
S20500002900D1
S20500002A4090
S20500002B28A7
S20500002C6F5F
S20500002D00CD
S20500002E00CC
S20500002F28A3
S2050000306F5B
S20500003100C9
S205000032C008
S20500003327A0
S2050000346F57
S20500003500C5
S2050000368044
S205000037279C
S2050000386F53
S20500003900C1
S20500003A4080
S20500003B2798
S20500003C6F4F
S20500003D00BD
S20500003E00BC
S20500003F2794
S2050000406F4B
S20500004100B9
S205000042C0F8
S2050000432691
S2050000446F47
S20500004500B5
S2050000468034
S205000047268D
S2050000486F43
S20500004900B1
S20500004A4070
S20500004B2689
S20500004C6F3F
S20500004D00AD
S20500004E00AC
S20500004F2685
S2050000506F3B
S20500005100A9
S205000052C0E8
S2050000532582
S2050000546F37
S20500005500A5
S2050000568024
S205000057257E
S2050000586F33
S20500005900A1
S20500005A4060
S20500005B257A
S20500005C6F2F
S20500005D009D
S20500005E009C
S20500005F2576
S2050000606F2B
S2050000610099
S205000062C0D8
S2050000632473
S2050000646F27
S2050000650095
S2050000668014
S205000067246F
S2050000686F23
S2050000690091
S20500006A4050
S20500006B246B
S20500006C6F1F
S20500006D008D
S20500006E008C
S20500006F2467
S2050000706F1B
S2050000710089
S205000072C0C8
S2050000732364
S2050000746F17
S2050000750085
S2050000768004
S2050000772360
S2050000786F13
S2050000790081
S20500007A4040
S20500007B235C
S20500007C6F0F
S20500007D007D
S20500007E007C
S20500007F2358
S2050000806F0B
S2050000810079
S205000082C0B8
S2050000832255
S2050000846F07
S2050000850075
S20500008680F4
S2050000872251
S2050000886F03
S2050000890071
S20500008A4030
S20500008B224D
S20500008C6FFF
S20500008D006D
S20500008E006C
S20500008F2249
S2050000906FFB
S2050000910069
S205000092C0A8
S2050000932146
S2050000946FF7
S2050000950065
S20500009680E4
S2050000972142
S2050000986FF3
S2050000990061
S20500009A4020
S20500009B213E
S20500009C6FEF
S20500009D005D
S20500009E005C
S20500009F213A
S2050000A06FEB
S2050000A10059
S2050000A2C098
S2050000A32037
S2050000A46FE7
S2050000A50055
S2050000A680D4
S2050000A72033
S2050000A86FE3
S2050000A90051
S2050000AA4010
S2050000AB202F
S2050000AC6FDF
S2050000AD004D
S2050000AE004C
S2050000AF202B
S2050000B06FDB
S2050000B10049
S2050000B2C088
S2050000B31F28
S2050000B46FD7
S2050000B50045
S2050000B680C4
S2050000B71F24
S2050000B86FD3
S2050000B90041
S2050000BA4000
S2050000BB1F20
S2050000BC6FCF
S2050000BD003D
S2050000BE003C
S2050000BF1F1C
S2050000C06FCB
S2050000C10039
S2050000C2C078
S2050000C31E19
S2050000C46FC7
S2050000C50035
S2050000C680B4
S2050000C71D16
S2050000C86FC3
S2050000C90031
S2050000CA40F0
S2050000CB1D12
S2050000CC6FBF
S2050000CD002D
S2050000CE002C
S2050000CF1D0E
S2050000D06FBB
S2050000D10029
S2050000D2C068
S2050000D31C0B
S2050000D46FB7
S2050000D50025
S2050000D680A4
S2050000D71C07
S2050000D86FB3
S2050000D90021
S2050000DA40E0
S2050000DB1C03
S2050000DC6FAF
S2050000DD001D
S2050000DE001C
S2050000DF1CFF
S2050000E06FAB
S2050000E10019
S2050000E2C058
S2050000E31BFC
S2050000E46FA7
S2050000E50015
S2050000E68094
S2050000E71BF8
S2050000E86FA3
S2050000E90011
S2050000EA40D0
S2050000EB1BF4
S2050000EC6F9F
S2050000ED000D
S2050000EE000C
S2050000EF1BF0
S2050000F06F9B
S2050000F10009
S2050000F2C048
S2050000F31AED
S2050000F46F97
S2050000F50005
S2050000F68084
S2050000F71AE9
S2050000F86F93
S2050000F90001
S2050000FA40C0
S2050000FB1AE5
S2050000FC6F8F
S2050000FD00FD
S2050000FE00FC
S2050000FF1AE1
S2050001006F8A
S20500010100F8
S205000102C037
S20500010319DD
S2050001049362
S20500010500F4
S20500010600F3
S20500010718DA
S205000108935E
S2050001099060
S20500010A40AF
S20500010B00EE
S20500010CF3FA
S20500010D905C
S20500010E00EB
S20500010F30BA
S205000110F3F6
S205000111D018
S205000112588F
S20500011330B6
S2050001149352
S20500011500E4
S20500011600E3
S20500011700E2
S20500011813CE
S205000119815F
S20500011A00DF
S20500011B00DE
S20500011C934A
S20500011D815B
S20500011E00DB
S20500011F00DA
S20500012013C6
S2050001218256
S20500012200D7
S20500012300D6
S2050001249342
S2050001258252
S20500012600D3
S20500012700D2
S20500012813BE
S205000129834D
S20500012A00CF
S20500012B00CE
S20500012C933A
S20500012D8349
S20500012E00CB
S20500012F00CA
S20500013013B6
S2050001318444
S20500013200C7
S20500013300C6
S2050001349332
S2050001358440
S20500013600C3
S20500013700C2
S20500013813AE
S205000139853B
S20500013A00BF
S20500013B00BE
S20500013C932A
S20500013D8537
S20500013E00BB
S20500013F00BA
S20500014013A6
S2050001418632
S20500014200B7
S20500014300B6
S2050001449322
S205000145862E
S20500014600B3
S20500014700B2
S205000148139E
S2050001498729
S20500014A00AF
S20500014B00AE
S20500014C931A
S20500014D8725
S20500014E00AB
S20500014F00AA
S2050001501396
S2050001518820
S20500015200A7
S20500015300A6
S2050001549312
S205000155881C
S20500015600A3
S20500015700A2
S205000158138E
S2050001598917
S20500015A009F
S20500015B009E
S20500015C930A
S20500015D8913
S20500015E009B
S20500015F009A
S2050001601386
S2050001618A0E
S2050001620097
S2050001630096
S2050001649302
S2050001658A0A
S2050001660093
S2050001670092
S205000168137E
S2050001698B05
S20500016A008F
S20500016B008E
S20500016C93FA
S20500016D8B01
S20500016E008B
S20500016F008A
S2050001701376
S2050001718CFC
S2050001720087
S2050001730086
S20500017493F2
S2050001758CF8
S2050001760083
S2050001770082
S205000178136E
S2050001798DF3
S20500017A007F
S20500017B007E
S20500017C93EA
S20500017D8DEF
S20500017E007B
S20500017F007A
S2050001801366
S2050001818EEA
S2050001820077
S2050001830076
S20500018493E2
S2050001858EE6
S2050001860073
S2050001870072
S205000188135E
S2050001898FE1
S20500018A006F
S20500018B006E
S20500018C93DA
S20500018D8FDD
S20500018E006B
S20500018F006A
S2050001901752
S2050001911157
S2050001921057
S2050001930066
S2050001941352
S2050001950163
S2050001960162
S205000197E77B
S205000198174A
S2050001990D53
S20500019A104F
S20500019B005E
S20500019C134A
S20500019D0D4F
S20500019E0D4E
S20500019FE773
S2050001A097C2
S2050001A10D4B
S2050001A21047
S2050001A30056
S2050001A493C2
S2050001A58DC7
S2050001A68DC6
S2050001A7E76B
S2050001A863EE
S2050001A958F8
S2050001AABD92
S2050001AB014D
S2050001AC232A
S2050001AD202C
S2050001AE0D3E
S2050001AF004A
S2050001B01336
S2050001B10D3B
S2050001B24DFA
S2050001B30046
S2050001B4E362
S2050001B5DC68
S2050001B6AD96
S2050001B7FF43
S2050001B8132E
S2050001B9053B
S2050001BA003F
S2050001BB003E
S2050001BC93AA
S2050001BD0537
S2050001BE003B
S2050001BF003A
S2050001C093A6
S2050001C10335
S2050001C20037
S2050001C30036
S2050001C4B77E
S2050001C50331
S2050001C6FF34
S2050001C7FF33
S2050001C8F33E
S2050001C9A38D
S2050001CA43EC
S2050001CB30FE
S2050001CC939A
S2050001CD0329
S2050001CE80AB
S2050001CF002A
S2050001D0F336
S2050001D1A385
S2050001D20324
S2050001D330F6
S2050001D49392
S2050001D50321
S2050001D60023
S2050001D70022
S2050001D8EF32
S2050001D90020
S2050001DAC05F
S2050001DB1509
S2050001DC6FAE
S2050001DD001C
S2050001DE001B
S2050001DF001A
S2050001E023F6
S2050001E120F8
S2050001E231E6
S2050001E30016
S2050001E423F2
S2050001E522F2
S2050001E641D2
S2050001E70012
S2050001E823EE
S2050001E924EC
S2050001EA51BE
S2050001EB000E
S2050001EC23EA
S2050001ED26E6
S2050001EE61AA
S2050001EF000A
S2050001F023E6
S2050001F128E0
S2050001F27196
S2050001F30006
S2050001F423E2
S2050001F52ADA
S2050001F6A162
S2050001F70002
S2050001F823DE
S2050001F92CD4
S2050001FAB14E
S2050001FB00FE
S2050001FC23DA
S2050001FD2ECE
S2050001FEC13A
S2050001FF00FA
S20500020023D5
S20500020120D7
S205000202D125
S20500020302F3
S20500020423D1
S20500020522D1
S205000206E111
S20500020702EF
S20500020823CD
S20500020924CB
S20500020AF1FD
S20500020B02EB
S20500020C23C9
S20500020D26C5
S20500020E01E9
S20500020F03E6
S20500021023C5
S20500021128BF
S20500021211D5
S20500021303E2
S20500021423C1
S2050002152AB9
S205000216C121
S20500021703DE
S20500021823BD
S2050002192CB3
S20500021AD10D
S20500021B03DA
S20500021C23B9
S20500021D2EAD
S20500021EE1F9
S20500021F03D6
S20500022023B5
S20500022120B7
S205000222F1E5
S20500022305D0
S205000224676D
S2050002258053
S20500022600D2
S20500022700D1
S205000228834D
S20500022921AE
S20500022A01CD
S20500022B00CD
S20500022C03C9
S20500022D22A9
S20500022E4189
S20500022F00C9
S2050002308345
S20500023122A5
S2050002328145
S20500023300C5
S20500023403C1
S20500023523A0
S205000236C101
S20500023700C1
S205000238833D
S205000239239C
S20500023A01BD
S20500023B01BC
S20500023C03B9
S20500023D2596
S20500023E4179
S20500023F01B8
S2050002408335
S2050002412592
S2050002428135
S20500024301B4
S20500024403B1
S205000245268D
S205000246C1F1
S20500024701B0
S205000248832D
S2050002492689
S20500024A01AD
S20500024B02AB
S20500024C03A9
S20500024D2784
S20500024E4169
S20500024F02A7
S2050002508325
S2050002512780
S2050002528125
S20500025302A3
S20500025403A1
S205000255287B
S205000256C1E1
S205000257029F
S205000258831D
S2050002592877
S20500025A019D
S20500025B039A
S20500025C0399
S20500025D2E6D
S20500025E4159
S20500025F0396
S2050002608315
S2050002612E69
S2050002628115
S2050002630392
S2050002640391
S2050002652F64
S205000266C1D1
S205000267038E
S205000268830D
S2050002692F60
S20500026A018D
S20500026B0489
S20500026C8309
S20500026D206B
S20500026E4149
S20500026F0485
S2050002701375
S2050002710186
S2050002728105
S2050002730481
S2050002747311
S2050002750083
S2050002762062
S2050002773051
S2050002786F11
S205000279007F
S20500027A007E
S20500027B007D
S20500027C6F0D
S20500027D007B
S20500027E007A
S20500027F0079
S2050002801365
S2050002810176
S20500028281F5
S205000283FB7A
S2050002842351
S2050002852251
S2050002861161
S205000287046D
S205000288EF81
S205000289F07F
S20500028A9FCF
S20500028BF578
S20500028CF379
S20500028D6308
S20500028E105A
S20500028F3435
S20500029093D5
S20500029183E4
S2050002924323
S2050002930065
S205000294F371
S20500029593D0
S205000296134F
S205000297342D
S2050002986FF1
S205000299F06F
S20500029A1F3F
S20500029BF964
S20500029C1349
S20500029D015A
S20500029E81D9
S20500029FFB5E
S2050002A02335
S2050002A12235
S2050002A21145
S2050002A30451
S2050002A4EF65
S2050002A5F063
S2050002A6DF73
S2050002A7F35E
S2050002A86FE1
S2050002A9F05F
S2050002AA1F2F
S2050002ABF855
S2050002AC6FDD
S2050002AD004B
S2050002AE004A
S2050002AF0049
S2050002B00048
S2050002B10047
S2050002B20046
S2050002B30045
S2050002B40044
S2050002B50043
S2050002B60042
S2050002B70041
S2050002B80040
S2050002B9003F
S2050002BA003E
S2050002BB003D
S2050002BC003C
S2050002BD003B
S2050002BE003A
S2050002BF0039
S2050002C01325
S2050002C10136
S2050002C20135
S2050002C3FF36
S2050002C42311
S2050002C5260D
S2050002C681B1
S2050002C70031
S2050002C8131D
S2050002C9042B
S2050002CA012D
S2050002CB012C
S2050002CCB775
S2050002CD0724
S2050002CE101A
S2050002CF0029
S2050002D00325
S2050002D1A780
S2050002D2071F
S2050002D30025
S2050002D4B76D
S2050002D5071C
S2050002D61012
S2050002D70021
S2050002D8839D
S2050002D9A778
S2050002DA47D7
S2050002DB001D
S2050002DCB369
S2050002DD0714
S2050002DEF723
S2050002DF0019
S2050002E01305
S2050002E18790
S2050002E227EF
S2050002E30015
S2050002E4B75D
S2050002E5070C
S2050002E61002
S2050002E70011
S2050002E823ED
S2050002E9A46B
S2050002EAE727
S2050002EB000D
S2050002EC13F9
S2050002ED000B
S2050002EE000A
S2050002EF0009
S2050002F00305
S2050002F124E3
S2050002F2C145
S2050002F30005
S2050002F413F1
S2050002F50102
S2050002F60101
S2050002F70100
S2050002F86799
S2050002F9807F
S2050002FA00FE
S2050002FB00FD
S2050002FC13E9
S2050002FD01FA
S2050002FE01F9
S2050002FFFFFA
S20500030023D4
S20500030126D0
S2050003028174
S20500030300F4
S20500030413E0
S20500030504EE
S20500030601F0
S20500030701EF
S205000308B738
S20500030907E7
S20500030A10DD
S20500030B00EC
S20500030C03E8
S20500030DA743
S20500030E07E2
S20500030F00E8
S205000310B730
S20500031107DF
S20500031210D5
S20500031300E4
S2050003148360
S205000315A73B
S205000316479A
S20500031700E0
S20500031833AC
S20500031907D7
S20500031AF7E6
S20500031B00DC
S20500031CB724
S20500031D07D3
S20500031E10C9
S20500031F00D8
S20500032023B4
S205000321A432
S205000322E7EE
S20500032300D4
S20500032413C0
S20500032500D2
S20500032600D1
S20500032700D0
S20500032803CC
S20500032924AA
S20500032AC10C
S20500032B00CC
S20500032C13B8
S20500032D01C9
S20500032E01C8
S20500032F01C7
S2050003306760
S2050003318046
S20500033200C5
S20500033300C4
S20500033413B0
S20500033501C1
S20500033601C0
S205000337FBC5
S205000338239C
S2050003392698
S20500033A11AC
S20500033B04B8
S20500033C2398
S20500033D2496
S20500033E8138
S20500033F04B4
S20500034013A4
S20500034104B2
S20500034201B4
S20500034305AF
S2050003442390
S2050003452E84
S205000346A40D
S205000347FAB6
S205000348238C
S2050003492C82
S20500034AB4F9
S20500034BFAB2
S20500034CB7F4
S20500034D07A3
S20500034E1099
S20500034F00A8
S2050003501394
S205000351079F
S20500035204A1
S205000353FCA8
S2050003542380
S205000355AAF8
S205000356E7BA
S20500035700A0
S205000358B7E8
S2050003590797
S20500035A108D
S20500035B009C
S20500035C1388
S20500035D0793
S20500035E0099
S20500035F2C6C
S2050003602374
S205000361A8EE
S205000362E7AE
S2050003630094
S205000364EFA4
S205000365F0A2
S2050003669FF2
S205000367F997
S205000368B7D8
S2050003690787
S20500036A107D
S20500036B008C
S20500036C2368
S20500036DA6E4
S20500036E0782
S20500036F0088
S2050003706F18
S2050003710086
S2050003720085
S2050003730480
S205000374B7CC
S205000375077B
S2050003761071
S2050003770080
S20500037883FC
S205000379A6D8
S20500037A0776
S20500037B017B
S20500037CB7C4
S20500037D0773
S20500037E1069
S20500037F0078
S2050003800374
S205000381A7CF
S205000382472E
S2050003830173
S205000384B7BC
S205000385076B
S2050003861061
S2050003870070
S20500038883EC
S205000389A7C7
S20500038AC7A6
S20500038B006C
S20500038C93D8
S20500038D97D3
S20500038E2742
S20500038F0068
S205000390B3B4
S205000391075F
S205000392F76E
S2050003930064
S2050003941350
S20500039587DB
S205000396065B
S2050003970060
S205000398233C
S205000399A0BE
S20500039AE776
S20500039B005C
S20500039CB7A4
S20500039D0753
S20500039E1049
S20500039F0058
S2050003A083D4
S2050003A1A7AF
S2050003A2C78E
S2050003A30054
S2050003A41340
S2050003A587CB
S2050003A6173A
S2050003A70050
S2050003A8B798
S2050003A90747
S2050003AA103D
S2050003AB004C
S2050003AC2328
S2050003ADA6A4
S2050003AEE762
S2050003AF0048
S2050003B0B790
S2050003B1073F
S2050003B21035
S2050003B30044
S2050003B40340
S2050003B5A79B
S2050003B6C77A
S2050003B70040
S2050003B893AC
S2050003B90737
S2050003BAF04D
S2050003BB003C
S2050003BCE358
S2050003BDDC5E
S2050003BEE752
S2050003BFFA3E
S2050003C0B780
S2050003C1072F
S2050003C21025
S2050003C30034
S2050003C483B0
S2050003C5A78B
S2050003C6C76A
S2050003C70030
S2050003C8131C
S2050003C987A7
S2050003CA57D6
S2050003CB002C
S2050003CCB774
S2050003CD0723
S2050003CE1019
S2050003CF0028
S2050003D02304
S2050003D1A680
S2050003D2E73E
S2050003D30024
S2050003D49390
S2050003D5071B
S2050003D60021
S2050003D70020
S2050003D8130C
S2050003D98599
S2050003DA0716
S2050003DB001C
S2050003DC8398
S2050003DD20FA
S2050003DEC158
S2050003DF0414
S2050003E00314
S2050003E124F2
S2050003E28194
S2050003E30410
S2050003E41300
S2050003E50111
S2050003E60110
S2050003E7050B
S2050003E867A8
S2050003E9808E
S2050003EA000D
S2050003EB000C
S205100000C822
S20510000100E9
S20510000200E8
S20510000300E7
S20510000406E0
S20510000500E5
S20510000600E4
S20510000700E3
S804000104F6
